:100000005FCA5FCA5FCA5FCA5FCA5FCA5FCA5FCAA8
:1014C00033C060C08CC05EC05DC05CC05BC05AC031
:1014D00059C058C057C056C055C054C053C004036B
:1014E0000904120341006400610066007200750087
:1014F0006900740010035400720069006E006B00F4
:101500006500740012011001FF00000881179F0C94
:1015100005010102000109021200010100803209E7
:10152000040000000000000011241FBECFE5D2E03F
:10153000DEBFCDBF84B7877F84BF88E10FB6F89444
:1015400081BD11BC0FBE81E090E020E80FB6F89499
:1015500026BD86BD0FBE0AEA0F9310E0A0E6B0E0FC
:10156000ECEDFFE102C005900D92A236B107D9F76C
:1015700011E0A2E6B0E001C01D92A832B107E1F788
:10158000EED32AC59DCFA82FB92F80E090E041E08F
:1015900050EA609530E009C02D9182279795879594
:1015A00010F084279527305EC8F36F5FA8F3089585
:1015B000EADF8D939D930895A6E088279927AA9541
:1015C00069F00197E1F3B399FCCFB39BFECF81E0C3
:1015D0009927A6B3019611F0A871D9F70895CF9372
:1015E000CFB7CF93C0915F02CA3A21F0CF91CFBF5E
:1015F000CF9164CFCC27C395B39BE9F7B39B0BC0C6
:10160000B39B09C0B39B07C0B39B05C0B39B03C08A
:10161000B39B01C0D3C00F92DF93C0910B01DD27B4
:10162000CE5EDE4F012EB39B03C0DF910F90E6CF5D
:101630002F930F931F934F932FEF4F6F06B303FB1F
:1016400020F95F933F9350E03BE065C016B301265D
:10165000502953FDC89556B3012703FB25F92F7375
:1016600006B3B1F05027102713FB26F906B222303B
:10167000F0F000C016B3012703FB27F9012650291B
:1016800006B22430E8F54F77206816B30000F6CF95
:1016900050274F7D206206B2102F000000C006B315
:1016A00000265029102713FB26F906B2E2CF4F7B04
:1016B00006B3206400C0DACF01265029187106B2A3
:1016C00069F14E7F2160012F16B328C000265029F2
:1016D0004D7F06B22260102F29C0012650294B7F72
:1016E00006B22460012F2DC016B301265029477F72
:1016F0002860000006B22EC04F7E06B3206130C0C5
:10170000422706B3499300265029102706B24FEF0F
:1017100013FB20F9297F16B379F2187159F10126CC
:10172000502906B2012703FB21F9237F06B371F28A
:10173000002650293150D0F006B2102713FB22F9B1
:10174000277E16B351F201265029012703FB06B26A
:1017500023F92F7C49F2000006B3102713FB24F96C
:101760000026502906B22F7939F270CF10E21ABF45
:10177000002717C03B503195C31BD04010E21ABF61
:101780000881033CF9F00B34E9F02091090119813B
:10179000110F1213EDCF093651F10D3211F0013E48
:1017A00039F7009310013F915F914F911F910F9175
:1017B0002F91DF910F90CAB7C5FD1DCFCF91CFBF3D
:1017C000CF91189520911001222369F310910E01F9
:1017D000112321F5343022F130930E0120930A01B8
:1017E00010910B013BE0311B30930B0119C00091AC
:1017F0000E0101309CF40AE53091600034FD11C007
:1018000000936000CEEFD0E010C0052710E000C0CC
:1018100021C0052710E0C89508BB14C03AE501C0F7
:1018200032ED032EC0E0D0E032E017B31861C39A66
:1018300008B317BB58E120E84FEF20FF052708BB8E
:10184000279517951C3F28F700004552B0F720FF59
:101850000527279508BB17951C3FB8F629913A959F
:1018600061F7077E10910F01110F08BBC250D040E5
:1018700011F01093090110E21ABF086017B3177E28
:10188000402F477E54E05A95F1F708BB17BB48BB81
:101890008ACF9C01E0917000F091710084E1ED3BF2
:1018A000F80778F481E080936D00F8940901809343
:1018B0005700E895112478943296F0937100E093E4
:1018C0007000089580916D00882309F439C040911B
:1018D00070005091710084E1413C580708F030C01D
:1018E000F894E4E142385E0718F121E080917E002F
:1018F00090917F008F559A4F9F70906CEEEBF4E1C2
:101900000C0120935700E895112480918600909156
:1019100087008C559A4F9F70906CECEBF4E10C01B2
:1019200020935700E8951124789481E080936C000F
:101930004250504085E0FA0180935700E895789432
:1019400010926D000895FF920F931F93CF93DF9332
:1019500090910E01935097FD52C180910B01ACE024
:10196000B0E0A81BB109AE5EBE4F31E0309362001B
:1019700080910A018D3209F000C1983009F03DC113
:1019800083EC8093FE008AE58093600010926F00E4
:101990008C91807609F47DC010926A0010926900E3
:1019A0001092680011962C911197213009F46DC0A6
:1019B000263009F447C0273009F042C03093650053
:1019C00086E790E090930D0180930C0113969C9113
:1019D0001397909378001092790012968C91129739
:1019E000803381F4992309F052C01496EC91149736
:1019F000F0E0EE0FFF1F81E2809357008491809307
:101A0000790045C08C3A89F4903809F040C01496AA
:101A10008C9114978823D9F515968C911597882366
:101A2000B1F581E08093630032C08C3481F5159666
:101A30008C911597882359F581E08093640027C025
:101A4000283019F43093650011C014968D919C9143
:101A50001597909371008093700016968C9116974D
:101A600080937500822F8950843010F020E078C078
:101A70008FE788BD30936600209374002A3009F404
:101A800062C181E0809365005EC121E069C024E00D
:101A900067C012969C9112971092070111968C9133
:101AA0001197882321F41092080122E04CC0853060
:101AB00019F490930F0146C08630A9F513968C91C6
:101AC0001397813019F484E095E118C0823019F43D
:101AD00086E195E113C0833009F512968C91129737
:101AE000882341F48EED94E190930D0180930C01D5
:101AF00024E015C0813041F482EE94E190930D0111
:101B000080930C0122E10BC0823041F484EF94E118
:101B100090930D0180930C0120E101C020E080E44E
:101B200080936F001DC0883021F421E081E191E0B5
:101B30000CC0893019F49093110104C08A3011F45B
:101B400021E001C020E087E091E090930D018093B7
:101B50000C0106C016969C9180E880936F000AC025
:101B600017968C911797882321F416969C919217BB
:101B700008F0922F9093610040C080916F0087FF22
:101B80003CC080917500192F891708F4182F082F71
:101B9000011B0093750010926500809174008C30D9
:101BA00041F18A3031F5FA2ECD01EC011EC02091B1
:101BB0007000309171002034310598F481E08093F9
:101BC0006B00F901EE0FFF1FE258FF4F88819981EA
:101BD000918380832E5F3F4F30937100209370007C
:101BE00003C08881998155DE22969E012F19211705
:101BF000F0F2002311F41092610010920E01809116
:101C0000600084FF86C0809161008F3F09F481C02D
:101C1000182F893008F018E0811B809361008091B3
:101C2000FE0098E889278093FE00112309F45FC025
:101C300080916F0087FF3FC080917500811708F485
:101C4000182F811B80937500AFEFB0E040E02EC0ED
:101C50008B3009F47DC08930D9F720917000309124
:101C600071002034310588F4F901EE0FFF1FE258AE
:101C7000FF4F808191818D939D932E5F3F4F3093D5
:101C80007100209370004E5F11C084E12C3B380737
:101C900010F08FEF02C0F90184918C9311962F5FA1
:101CA0003F4F30937100209370004F5F4117E8F46D
:101CB00080917400CDCFE0910C01F0910D0186FF71
:101CC00009C0912FAFEFB0E084918D933196915080
:101CD000D9F707C0912FAFEFB0E081918D9391506C
:101CE000E1F7F0930D01E0930C01193060F48FEFF0
:101CF00090E0612F5DDC612F6C5F6C3041F08FEF05
:101D00008093610004C08FEF809361006EE1609367
:101D1000600094E186B3887131F49150D9F7109244
:101D20000F011092090110E0992309F411E080914C
:101D30006E00811771F0112319F4F89406D178948C
:101D400010936E0006C08C9187FD04CF9FEF04CFE7
:101D5000FFCFDF91CF911F910F91FF90089511B7A1
:101D6000B99A83E28ABD81E083BF8BB780628BBF63
:101D7000AC9ABB9A80ED97E0ECE9F1E03197F1F78E
:101D80000197D1F7BB987894DEDD809163008823BA
:101D900001F182E090E00FC0CF018F739070892B2A
:101DA00021F483E080935700E895CDDD80917200A7
:101DB0009091730002969093730080937200E0916B
:101DC0007200F091730084E1E03CF80728F3109270
:101DD000630080916400882329F0B5DD73DD1092E3
:101DE0006400B1DD80916200882341F0809165003C
:101DF000882321F480916600882331F68091620067
:101E0000882371F080916700882351F488B5805F42
:101E100088BD88B5882321F48AB590E189278ABDD9
:101E2000809167008F5F809367008EEC90E0019750
:101E3000F1F720916800309169002F5F3F4F309398
:101E400069002093680080916A002115310519F41A
:101E5000982F9F5F01C0982F90936A008091620035
:101E6000882321F48EE421323807A0F480916500A4
:101E7000882319F02151374268F480916200882349
:101E800009F482CF80916600882309F07DCF9330DA
:101E900008F47ACF1BBE15BAF89480916B008823A2
:101EA00069F180916C00882309F044C08CEB94E1C7
:101EB000909371008093700081E080936D0002DD4B
:101EC00039C0F901EE0FFF1FE258FF4F8081918169
:101ED0002115310519F02430310539F4F901E054A8
:101EE000FB4E85919491805A954FD3DC20917000E0
:101EF000309171002034310520F3E4DC10925F0250
:101F000017BA13BE1ABC03C081B78F5F81BF81B7F8
:101F10008117D0F303C081B7815081BF81B71817F3
:101F2000D0F381E090E020E80FB6F89426BD86BD9E
:101F30000FBEC5CAE0E0F0E083E080935700E8956B
:101F40001092710010927000D1CFFF920F931F93E7
:101F5000CF93DF9380E090E020E80FB6F89426BDA1
:101F600086BD0FBE80E8F82E00E0C0E0D0E0102F64
:101F70001F0D11BF21DB29E0843392070CF0102FD5
:101F8000F6942196C830D10511F0012FF0CF1150F1
:101F900011BF1F5F012FEC0110C00EDB845399406D
:101FA00097FF03C0909581959F4F8C179D0714F460
:101FB00001B7EC0181B78F5F81BF21B730E0812F7E
:101FC00090E001968217930744F701BFDF91CF910C
:0C1FD0001F910F91FF900895F894FFCF2F
:021FDC005AFFAA
:04000003000014C025
:00000001FF
